:1000000033C000004CC000004AC0000048C00000DF
:1000100046C0000048C1000042C0000040C00000CF
:100020003EC000003CC000003AC0000038C00000E4
:1000300036C0000034C0000032C0000030C00000F4
:100040002EC000002CC000002AC0000028C0000004
:1000500026C0000024C0000022C0000020C0000014
:100060001EC000001CC0000011241FBECFEFD8E04E
:10007000DEBFCDBF11E0A0E0B1E0E0E4F3E002C0FC
:1000800005900D92A030B107D9F721E0A0E0B1E0D2
:1000900001C01D92AC3CB207E1F715D04FC1B0CF03
:1000A00063E084E011D03FD083E390E029D1C0E940
:1000B000D1E0F2D034D188E893E1FE013197F1F735
:1000C0000197D9F7F6CFECDF9EEF980F963048F501
:1000D0009AB141E050E09A01082E01C0220F0A9423
:1000E000EAF7322F309593239AB99BB1292B2BB97C
:1000F000809302019EEF960F963088F4861779F070
:100100008BB1062E01C0440F0A94EAF7842B8BB9F9
:100110008AB1482B4AB96093CB0181E0089581E010
:10012000089580E008957894E8E6F0E080818460A6
:100130008083EDE6F0E0208181E090E00090020114
:1001400002C0880F991F0A94E2F7822B80830895DA
:1001500020916D0061E070E0AB010090020102C0EF
:10016000440F551F0A94E2F7942F90959223909391
:100170006D0081E08093010180ED90E00197F1F73F
:10018000CB010090020102C0880F991F0A94E2F788
:1001900049B150E04823592321E0452B09F420E0E0
:1001A000E0EDF0E03197F1F749B150E048235923F1
:1001B000452B09F02260E0EDF0E03197F1F749B10D
:1001C00050E048235923452B09F02460E0EDF0E08E
:1001D0003197F1F749B150E048235923452B09F0F5
:1001E0002860E0EDF0E03197F1F749B150E04823A5
:1001F0005923452B09F02061E0EDF0E03197F1F74C
:1002000049B150E048235923452B09F02062E0ED25
:10021000F0E03197F1F749B150E048235923452BDD
:1002200009F02064E0EDF0E03197F1F749B150E0DA
:1002300048235923452B09F02068E0EDF0E0319781
:10024000F1F73AE63A95F1F730910001311107C024
:1002500038ECE3E0F1E0DF011D923A95E9F7E09137
:100260000001F0E0ED5FFE4F2083209100012F5F41
:100270002093000131E0283C08F430E0B8E33B9FD4
:10028000200D11242093000190916D00892B809303
:100290006D00109201010895809101018111FCCF40
:1002A00083E091E008951F920F920FB60F921124F0
:1002B0002F933F934F935F936F937F938F939F936E
:1002C000AF93BF93EF93FF9389B190E00090020149
:1002D00002C0959587950A94E2F780FF39DFFF9178
:1002E000EF91BF91AF919F918F917F916F915F91AE
:1002F0004F913F912F910F900FBE0F901F90189527
:100300009093C5008093C400E0ECF0E0108210826E
:1003100088E18093C1008EE08093C2000895FC01C3
:100320002081222351F031969091C00095FFFCCF9F
:100330002093C60021912111F7CF0895F894FFCFA3
:00000001FF
