:1000000033C0000041C000003FC000003DC0000000
:100010003BC0000075C0000037C0000035C00000C4
:1000200033C0000031C000002FC000002DC0000010
:100030002BC0000029C0000027C0000025C0000020
:1000400023C0000021C000001FC000001DC0000030
:100050001BC0000019C0000017C0000015C0000040
:1000600013C0000011C0000011241FBECFEFD8E064
:10007000DEBFCDBF21E0A0E0B1E001C01D92A839F4
:10008000B207E1F720D0E7C0BBCF63E082E027D022
:100090002BD083E390E0BAD0C0E9D1E004E610E0D1
:1000A00017D0CAD088E893E1FE013197F1F70197A4
:1000B000D9F7802FBAD088E893E1FE013197F1F7A4
:1000C0000197D9F7EDCFE1DF80910001805D0895C0
:1000D000809101018111FCCF82E091E00895529856
:1000E0005A9A5B9A539A08957894E8E6F0E08081F2
:1000F00084608083EDE6F0E08081846080830895F1
:100100001F920F920FB60F9211242F938F939F93EC
:10011000AF93BF93EF93FF934A9B0CC0FF91EF9176
:10012000BF91AF919F918F912F910F900FBE0F9024
:100130001F90189580916D008B7F80936D0081E0FA
:1001400080930101E0EDF0E0CF010197F1F789B173
:1001500082FB882780F93197F1F74A998260E0EDB8
:10016000F0E03197F1F74A998460E0EDF0E03197E3
:10017000F1F74A998860E0EDF0E03197F1F74A999C
:100180008061E0EDF0E03197F1F74A998062E0EDAF
:10019000F0E03197F1F74A998064E0EDF0E03197B3
:1001A000F1F74A9922C0E0EDF0E03197F1F79AE6D5
:1001B0009A95F1F7909100019923D9F0E92FF0E099
:1001C000EE5FFE4F80839F5F81E0963980F0BAE654
:1001D0008B9F900D11249093000180916D0084609D
:1001E00080936D001092010199CF8068DCCF80E090
:1001F000EECF96E9E2E0F1E0DF011D929A95E9F792
:100200008093020181E080930001E7CF9093C500C5
:100210008093C400E0ECF0E01082108288E18093CB
:10022000C1008EE08093C20008959091C00095FFB8
:10023000FCCF8093C6000895FC012081222351F059
:1002400031969091C00095FFFCCF2093C60021917C
:0A0250002111F7CF0895F894FFCFB5
:00000001FF
