:1000000033C0000041C000003FC000003DC0000000
:100010003BC000001FC2000037C0000035C0000018
:1000200033C0000031C000002FC000002DC0000010
:100030002BC0000029C0000027C0000025C0000020
:1000400023C0000021C000001FC000001DC0000030
:100050001BC0000019C0000017C0000015C0000040
:1000600013C0000011C0000011241FBECFEFD8E064
:10007000DEBFCDBF21E0A0E0B1E001C01D92AC3CED
:10008000B207E1F715D022C2BBCF63E082E011D006
:100090003FD083E390E00BD2C0E9D1E081E64DD0C0
:1000A00088E893E1FE013197F1F70197D9F7F6CF90
:1000B000ECDF9EEF980F963048F59AB141E050E0A2
:1000C0009A01082E01C0220F0A94EAF7322F3095C8
:1000D00093239AB99BB1292B2BB9809302019EEFF0
:1000E000960F963088F4861779F08BB1062E01C0F2
:1000F000440F0A94EAF7842B8BB98AB1482B4AB98A
:100100006093CB0181E0089581E0089580E0089537
:100110007894E8E6F0E0808184608083EDE6F0E0AA
:10012000208181E090E00090020102C0880F991FB9
:100130000A94E2F7822B808308952BB141E050E0CE
:10014000BA010090CB0102C0660F771F0A94E2F754
:10015000962F909592239BB9E0EDF0E03197F1F75F
:10016000282F30E080FDA7C08BB10090CB0102C0EA
:10017000440F551F0A94E2F7409548234BB980ED90
:1001800090E00197F1F74BB181E090E00090CB0156
:1001900002C0880F991F0A94E2F721FDB4C0809530
:1001A00084238BB980ED90E00197F1F74BB181E0AA
:1001B00090E00090CB0102C0880F991F0A94E2F7EB
:1001C00022FD9EC0809584238BB980ED90E001973D
:1001D000F1F74BB181E090E00090CB0102C0880FB5
:1001E000991F0A94E2F723FD88C0809584238BB978
:1001F00080ED90E00197F1F74BB181E090E0009045
:10020000CB0102C0880F991F0A94E2F724FD72C047
:10021000809584238BB980ED90E00197F1F74BB185
:1002200081E090E00090CB0102C0880F991F0A94F2
:10023000E2F725FD5CC0809584238BB980ED90E0CA
:100240000197F1F74BB181E090E00090CB0102C043
:10025000880F991F0A94E2F726FD46C080958423F3
:100260008BB980ED90E00197F1F7220F232F221F29
:10027000330B232B59F12BB181E090E00090CB019F
:1002800002C0880F991F0A94E2F7822B8BB980ED88
:1002900090E0FC013197F1F74BB121E030E00090A4
:1002A000CB0102C0220F331F0A94E2F7242B2BB993
:1002B0000197F1F708958BB10090CB0102C0440F74
:1002C000551F0A94E2F7482B4BB959CF2BB181E067
:1002D00090E00090CB0102C0880F991F0A94E2F7CA
:1002E000809582238BB9D3CF842B8BB9BACF842B43
:1002F0008BB9A4CF842B8BB98ECF842B8BB978CFBD
:10030000842B8BB962CF842B8BB94CCF20916D009D
:1003100061E070E0AB010090020102C0440F551F84
:100320000A94E2F7942F9095922390936D0081E0C8
:100330008093010180ED90E00197F1F7CB010090EF
:10034000020102C0880F991F0A94E2F749B150E0F8
:100350004823592321E0452B09F420E0E0EDF0E0AB
:100360003197F1F749B150E048235923452B09F063
:100370002260E0EDF0E03197F1F749B150E0482319
:100380005923452B09F02460E0EDF0E03197F1F7B7
:1003900049B150E048235923452B09F02860E0ED8E
:1003A000F0E03197F1F749B150E048235923452B4C
:1003B00009F02061E0EDF0E03197F1F749B150E04C
:1003C00048235923452B09F02062E0EDF0E03197F6
:1003D000F1F749B150E048235923452B09F0206437
:1003E000E0EDF0E03197F1F749B150E048235923AF
:1003F000452B09F02068E0EDF0E0DF011197F1F7FF
:100400003197F1F730910001311107C038ECE3E08A
:10041000F1E0DF011D923A95E9F7E0910001F0E08B
:10042000ED5FFE4F2083209100012F5F209300019C
:1004300031E0283C08F430E0B8E33B9F200D112464
:100440002093000190916D00892B80936D00109294
:10045000010108951F920F920FB60F9211242F934E
:100460003F934F935F936F937F938F939F93AF933C
:10047000BF93EF93FF9389B190E00090020102C017
:10048000959587950A94E2F780FF40DFFF91EF9101
:10049000BF91AF919F918F917F916F915F914F919C
:1004A0003F912F910F900FBE0F901F901895909332
:1004B000C5008093C400E0ECF0E01082108288E177
:1004C0008093C1008EE08093C2000895F894FFCF1E
:00000001FF
