:1000000033C0000041C000003FC000003DC0000000
:100010003BC00000A1C0000037C0000035C0000098
:1000200033C0000031C000002FC000002DC0000010
:100030002BC0000029C0000027C0000025C0000020
:1000400023C0000021C000001FC000001DC0000030
:100050001BC0000019C0000017C0000015C0000040
:1000600013C0000011C0000011241FBECFEFD8E064
:10007000DEBFCDBF21E0A0E0B1E001C01D92A13004
:10008000B207E1F710D094C0BBCF0ED010D058D03B
:1000900087E690E077D0C0E4DCE90CD082D0CE01D6
:1000A0000197F1F7FACFF1DF52985A9A08955B9AC7
:1000B000539A0895809100018823E1F380E792E04C
:1000C0000197F1F789B182FB882780F9E0EAF1E036
:1000D0003197F1F74A998260E0EAF1E03197F1F760
:1000E0004A998460E0EAF1E03197F1F74A99886033
:1000F000E0EAF1E03197F1F74A998061E0EAF1E056
:100100003197F1F74A998062E0EAF1E03197F1F72F
:100110004A998064E0EAF1E03197F1F74A99806802
:10012000E0EAF1E03197F1F7E0E7F2E03197F1F73B
:100130001092000190916D00946090936D0008956D
:100140007894E8E6F0E0808184608083EDE6F0E07A
:1001500080818460808308951F920F920FB60F9262
:1001600011248F934A9908C080916D008B7F8093F2
:100170006D0081E0809300018F910F900FBE0F9072
:100180001F9018959093C5008093C400E0ECF0E0B8
:100190001082108288E18093C1008EE08093C200BB
:1001A00008959091C00095FFFCCF8093C6000895FC
:0401B000F894FFCFF1
:00000001FF
