:1000000033C0000039C0000037C0000035C0000018
:1000100033C0000031C000002FC000002DC0000020
:100020002BC0000029C0000027C0000025C0000030
:1000300023C0000021C000001FC000001DC0000040
:100040001BC0000019C0000017C0000015C0000050
:1000500013C0000011C000000FC000000DC0000060
:100060000BC0000009C0000011241FBECFEFD8E074
:10007000DEBFCDBF02D02BC0C3CF87E690E00AD051
:100080008FEF84B9C0E4DCE91BD013D0CE01019717
:10009000F1F7FACF9093C5008093C400E0ECF0E054
:1000A0001082108288E18093C1008EE08093C200AC
:1000B00008959091C00095FFFCCF8093C6000895ED
:1000C0008091C00087FFFCCF8091C6000895F8940E
:0200D000FFCF60
:00000001FF
